{
  "contractName": "first_contract",
  "abi": [
    {
      "inputs": [
        {
          "internalType": "address",
          "name": "",
          "type": "address"
        }
      ],
      "name": "accounts",
      "outputs": [
        {
          "internalType": "string",
          "name": "name",
          "type": "string"
        },
        {
          "internalType": "uint256",
          "name": "counter",
          "type": "uint256"
        },
        {
          "internalType": "bool",
          "name": "creater",
          "type": "bool"
        }
      ],
      "stateMutability": "view",
      "type": "function",
      "constant": true
    },
    {
      "inputs": [],
      "name": "owner",
      "outputs": [
        {
          "internalType": "address",
          "name": "",
          "type": "address"
        }
      ],
      "stateMutability": "view",
      "type": "function",
      "constant": true
    },
    {
      "inputs": [],
      "name": "get",
      "outputs": [
        {
          "internalType": "string",
          "name": "",
          "type": "string"
        }
      ],
      "stateMutability": "view",
      "type": "function",
      "constant": true
    },
    {
      "inputs": [
        {
          "internalType": "string",
          "name": "url_name",
          "type": "string"
        }
      ],
      "name": "addPicture",
      "outputs": [],
      "stateMutability": "nonpayable",
      "type": "function"
    },
    {
      "inputs": [
        {
          "internalType": "uint256",
          "name": "n",
          "type": "uint256"
        }
      ],
      "name": "getpicture",
      "outputs": [
        {
          "internalType": "string",
          "name": "",
          "type": "string"
        }
      ],
      "stateMutability": "view",
      "type": "function",
      "constant": true
    },
    {
      "inputs": [],
      "name": "getcounter",
      "outputs": [
        {
          "internalType": "uint256",
          "name": "n",
          "type": "uint256"
        }
      ],
      "stateMutability": "view",
      "type": "function",
      "constant": true
    },
    {
      "inputs": [],
      "name": "returnallFriends",
      "outputs": [
        {
          "internalType": "address[]",
          "name": "",
          "type": "address[]"
        }
      ],
      "stateMutability": "view",
      "type": "function",
      "constant": true
    },
    {
      "inputs": [
        {
          "internalType": "address",
          "name": "friend_request_address",
          "type": "address"
        }
      ],
      "name": "addFrind",
      "outputs": [],
      "stateMutability": "nonpayable",
      "type": "function"
    },
    {
      "inputs": [],
      "name": "getFriendsAddress",
      "outputs": [
        {
          "internalType": "address[]",
          "name": "",
          "type": "address[]"
        }
      ],
      "stateMutability": "view",
      "type": "function",
      "constant": true
    },
    {
      "inputs": [
        {
          "internalType": "string",
          "name": "name",
          "type": "string"
        }
      ],
      "name": "createAcount",
      "outputs": [],
      "stateMutability": "nonpayable",
      "type": "function"
    },
    {
      "inputs": [],
      "name": "getname",
      "outputs": [
        {
          "internalType": "string",
          "name": "",
          "type": "string"
        }
      ],
      "stateMutability": "view",
      "type": "function",
      "constant": true
    }
  ],
  "bytecode": "0x60806040526040518060400160405280600581526020017f68656c6c6f000000000000000000000000000000000000000000000000000000815250600090805190602001906200005192919062000066565b503480156200005f57600080fd5b506200017b565b828054620000749062000145565b90600052602060002090601f016020900481019282620000985760008555620000e4565b82601f10620000b357805160ff1916838001178555620000e4565b82800160010185558215620000e4579182015b82811115620000e3578251825591602001919060010190620000c6565b5b509050620000f39190620000f7565b5090565b5b8082111562000112576000816000905550600101620000f8565b5090565b7f4e487b7100000000000000000000000000000000000000000000000000000000600052602260045260246000fd5b600060028204905060018216806200015e57607f821691505b6020821081141562000175576200017462000116565b5b50919050565b61124f806200018b6000396000f3fe608060405234801561001057600080fd5b50600436106100a95760003560e01c806362ee9f411161007157806362ee9f41146101525780636d4ce63c146101705780638da5cb5b1461018e578063c6ea59b9146101ac578063df3689a1146101ca578063e1a58885146101e8576100a9565b806323db5ee1146100ae5780632557150e146100cc57806353f26b0d146100e857806354bb5ab0146101045780635e5c06e214610120575b600080fd5b6100b6610218565b6040516100c39190610d39565b60405180910390f35b6100e660048036038101906100e19190610eb5565b6102e6565b005b61010260048036038101906100fd9190610f2a565b61043c565b005b61011e60048036038101906101199190610eb5565b61053b565b005b61013a60048036038101906101359190610f2a565b6106ac565b60405161014993929190611013565b60405180910390f35b61015a61076b565b6040516101679190610d39565b60405180910390f35b610178610839565b6040516101859190611051565b60405180910390f35b6101966108cb565b6040516101a39190611082565b60405180910390f35b6101b46108f1565b6040516101c19190611051565b60405180910390f35b6101d2610a1c565b6040516101df919061109d565b60405180910390f35b61020260048036038101906101fd91906110e4565b610a66565b60405161020f9190611051565b60405180910390f35b6060600160003373ffffffffffffffffffffffffffffffffffffffff1673ffffffffffffffffffffffffffffffffffffffff1681526020019081526020016000206008018054806020026020016040519081016040528092919081815260200182805480156102dc57602002820191906000526020600020905b8160009054906101000a900473ffffffffffffffffffffffffffffffffffffffff1673ffffffffffffffffffffffffffffffffffffffff1681526020019060010190808311610292575b5050505050905090565b600160003373ffffffffffffffffffffffffffffffffffffffff1673ffffffffffffffffffffffffffffffffffffffff16815260200190815260200160002060070160009054906101000a900460ff161561034057600080fd5b80600160003373ffffffffffffffffffffffffffffffffffffffff1673ffffffffffffffffffffffffffffffffffffffff1681526020019081526020016000206000019080519060200190610396929190610ba6565b506000600160003373ffffffffffffffffffffffffffffffffffffffff1673ffffffffffffffffffffffffffffffffffffffff1681526020019081526020016000206006018190555060018060003373ffffffffffffffffffffffffffffffffffffffff1673ffffffffffffffffffffffffffffffffffffffff16815260200190815260200160002060070160006101000a81548160ff02191690831515021790555050565b600160008273ffffffffffffffffffffffffffffffffffffffff1673ffffffffffffffffffffffffffffffffffffffff16815260200190815260200160002060070160009054906101000a900460ff1661049557600080fd5b600160003373ffffffffffffffffffffffffffffffffffffffff1673ffffffffffffffffffffffffffffffffffffffff168152602001908152602001600020600801819080600181540180825580915050600190039060005260206000200160009091909190916101000a81548173ffffffffffffffffffffffffffffffffffffffff021916908373ffffffffffffffffffffffffffffffffffffffff16021790555050565b600160003373ffffffffffffffffffffffffffffffffffffffff1673ffffffffffffffffffffffffffffffffffffffff16815260200190815260200160002060070160009054906101000a900460ff1661059457600080fd5b6000600160003373ffffffffffffffffffffffffffffffffffffffff1673ffffffffffffffffffffffffffffffffffffffff16815260200190815260200160002060060154905060058114156105e957600090505b81600160003373ffffffffffffffffffffffffffffffffffffffff1673ffffffffffffffffffffffffffffffffffffffff168152602001908152602001600020600101826005811061063e5761063d611111565b5b019080519060200190610652929190610ba6565b50808061065e9061116f565b91505080600160003373ffffffffffffffffffffffffffffffffffffffff1673ffffffffffffffffffffffffffffffffffffffff168152602001908152602001600020600601819055505050565b60016020528060005260406000206000915090508060000180546106cf906111e7565b80601f01602080910402602001604051908101604052809291908181526020018280546106fb906111e7565b80156107485780601f1061071d57610100808354040283529160200191610748565b820191906000526020600020905b81548152906001019060200180831161072b57829003601f168201915b5050505050908060060154908060070160009054906101000a900460ff16905083565b6060600160003373ffffffffffffffffffffffffffffffffffffffff1673ffffffffffffffffffffffffffffffffffffffff16815260200190815260200160002060080180548060200260200160405190810160405280929190818152602001828054801561082f57602002820191906000526020600020905b8160009054906101000a900473ffffffffffffffffffffffffffffffffffffffff1673ffffffffffffffffffffffffffffffffffffffff16815260200190600101908083116107e5575b5050505050905090565b606060008054610848906111e7565b80601f0160208091040260200160405190810160405280929190818152602001828054610874906111e7565b80156108c15780601f10610896576101008083540402835291602001916108c1565b820191906000526020600020905b8154815290600101906020018083116108a457829003601f168201915b5050505050905090565b600260009054906101000a900473ffffffffffffffffffffffffffffffffffffffff1681565b6060600160003373ffffffffffffffffffffffffffffffffffffffff1673ffffffffffffffffffffffffffffffffffffffff16815260200190815260200160002060070160009054906101000a900460ff1661094c57600080fd5b600160003373ffffffffffffffffffffffffffffffffffffffff1673ffffffffffffffffffffffffffffffffffffffff1681526020019081526020016000206000018054610999906111e7565b80601f01602080910402602001604051908101604052809291908181526020018280546109c5906111e7565b8015610a125780601f106109e757610100808354040283529160200191610a12565b820191906000526020600020905b8154815290600101906020018083116109f557829003601f168201915b5050505050905090565b6000600160003373ffffffffffffffffffffffffffffffffffffffff1673ffffffffffffffffffffffffffffffffffffffff16815260200190815260200160002060060154905090565b6060600160003373ffffffffffffffffffffffffffffffffffffffff1673ffffffffffffffffffffffffffffffffffffffff16815260200190815260200160002060070160009054906101000a900460ff16610ac157600080fd5b600160003373ffffffffffffffffffffffffffffffffffffffff1673ffffffffffffffffffffffffffffffffffffffff1681526020019081526020016000206001018260058110610b1557610b14611111565b5b018054610b21906111e7565b80601f0160208091040260200160405190810160405280929190818152602001828054610b4d906111e7565b8015610b9a5780601f10610b6f57610100808354040283529160200191610b9a565b820191906000526020600020905b815481529060010190602001808311610b7d57829003601f168201915b50505050509050919050565b828054610bb2906111e7565b90600052602060002090601f016020900481019282610bd45760008555610c1b565b82601f10610bed57805160ff1916838001178555610c1b565b82800160010185558215610c1b579182015b82811115610c1a578251825591602001919060010190610bff565b5b509050610c289190610c2c565b5090565b5b80821115610c45576000816000905550600101610c2d565b5090565b600081519050919050565b600082825260208201905092915050565b6000819050602082019050919050565b600073ffffffffffffffffffffffffffffffffffffffff82169050919050565b6000610ca082610c75565b9050919050565b610cb081610c95565b82525050565b6000610cc28383610ca7565b60208301905092915050565b6000602082019050919050565b6000610ce682610c49565b610cf08185610c54565b9350610cfb83610c65565b8060005b83811015610d2c578151610d138882610cb6565b9750610d1e83610cce565b925050600181019050610cff565b5085935050505092915050565b60006020820190508181036000830152610d538184610cdb565b905092915050565b6000604051905090565b600080fd5b600080fd5b600080fd5b600080fd5b6000601f19601f8301169050919050565b7f4e487b7100000000000000000000000000000000000000000000000000000000600052604160045260246000fd5b610dc282610d79565b810181811067ffffffffffffffff82111715610de157610de0610d8a565b5b80604052505050565b6000610df4610d5b565b9050610e008282610db9565b919050565b600067ffffffffffffffff821115610e2057610e1f610d8a565b5b610e2982610d79565b9050602081019050919050565b82818337600083830152505050565b6000610e58610e5384610e05565b610dea565b905082815260208101848484011115610e7457610e73610d74565b5b610e7f848285610e36565b509392505050565b600082601f830112610e9c57610e9b610d6f565b5b8135610eac848260208601610e45565b91505092915050565b600060208284031215610ecb57610eca610d65565b5b600082013567ffffffffffffffff811115610ee957610ee8610d6a565b5b610ef584828501610e87565b91505092915050565b610f0781610c95565b8114610f1257600080fd5b50565b600081359050610f2481610efe565b92915050565b600060208284031215610f4057610f3f610d65565b5b6000610f4e84828501610f15565b91505092915050565b600081519050919050565b600082825260208201905092915050565b60005b83811015610f91578082015181840152602081019050610f76565b83811115610fa0576000848401525b50505050565b6000610fb182610f57565b610fbb8185610f62565b9350610fcb818560208601610f73565b610fd481610d79565b840191505092915050565b6000819050919050565b610ff281610fdf565b82525050565b60008115159050919050565b61100d81610ff8565b82525050565b6000606082019050818103600083015261102d8186610fa6565b905061103c6020830185610fe9565b6110496040830184611004565b949350505050565b6000602082019050818103600083015261106b8184610fa6565b905092915050565b61107c81610c95565b82525050565b60006020820190506110976000830184611073565b92915050565b60006020820190506110b26000830184610fe9565b92915050565b6110c181610fdf565b81146110cc57600080fd5b50565b6000813590506110de816110b8565b92915050565b6000602082840312156110fa576110f9610d65565b5b6000611108848285016110cf565b91505092915050565b7f4e487b7100000000000000000000000000000000000000000000000000000000600052603260045260246000fd5b7f4e487b7100000000000000000000000000000000000000000000000000000000600052601160045260246000fd5b600061117a82610fdf565b91507fffffffffffffffffffffffffffffffffffffffffffffffffffffffffffffffff8214156111ad576111ac611140565b5b600182019050919050565b7f4e487b7100000000000000000000000000000000000000000000000000000000600052602260045260246000fd5b600060028204905060018216806111ff57607f821691505b60208210811415611213576112126111b8565b5b5091905056fea26469706673582212206f2c2038a4d7785b4dadf92fc949f1a5420109c21819cb6dec11e9b51e4cc0c164736f6c634300080b0033",
  "immutableReferences": {},
  "source": "// SPDX-License-Identifier: MIT\r\npragma solidity >=0.4.22 <0.9.0;\r\n\r\ncontract first_contract {\r\n\r\n    string world = \"hello\";\r\n\r\n    function get() public view returns (string memory){\r\n       return world;\r\n    }\r\n\r\n    struct User{\r\n        string name;\r\n        string[5] urls;\r\n        uint256 counter;\r\n        bool creater;\r\n        address[] friends;\r\n    }\r\n\r\n    mapping(address => User) public accounts;\r\n    address public owner;\r\n\r\n    function addPicture(string memory url_name) public{\r\n        require(accounts[msg.sender].creater);\r\n        uint256 count = accounts[msg.sender].counter;    \r\n        if(count==5){\r\n            count = 0;\r\n        }\r\n        accounts[msg.sender].urls[count] = url_name;\r\n        count++;\r\n        accounts[msg.sender].counter = count;\r\n    }\r\n\r\n    function getpicture(uint256 n) public view returns (string memory){\r\n       require(accounts[msg.sender].creater);\r\n       return accounts[msg.sender].urls[n];\r\n    }\r\n    \r\n    function getcounter() public view returns (uint256 n){\r\n       return accounts[msg.sender].counter;\r\n    }\r\n/*\r\n   function getallStrings() public view returns (string[] memory){\r\n        uint number_of_friends = accounts[msg.sender].friends.length;\r\n        string[] memory all_friends_picture;\r\n        for(uint i =0; i< number_of_friends; i++){\r\n                address friend_address = accounts[msg.sender].friends[i];\r\n                uint256 number_of_picture_of_friend = accounts[friend_address].counter;\r\n                \r\n                for(uint j =0; j<number_of_picture_of_friend; j++){\r\n                    string memory url = accounts[friend_address].urls[j];\r\n                    all_friends_picture.push(url);\r\n                }\r\n        }\r\n\r\n       return all_friends_picture;\r\n    }\r\n*/\r\n    function returnallFriends() public view returns (address[] memory){\r\n        return accounts[msg.sender].friends;\r\n    }\r\n\r\n    function addFrind(address friend_request_address) public {\r\n        require(accounts[friend_request_address].creater);\r\n        accounts[msg.sender].friends.push(friend_request_address);\r\n    }\r\n    function getFriendsAddress() public view returns (address[] memory){\r\n        return accounts[msg.sender].friends;\r\n    }\r\n\r\n    function createAcount(string memory name) public {\r\n        require(!accounts[msg.sender].creater);\r\n        accounts[msg.sender].name = name;\r\n        accounts[msg.sender].counter =0;\r\n        accounts[msg.sender].creater = true;\r\n    }\r\n\r\n    function getname() public view returns (string memory){\r\n       require(accounts[msg.sender].creater);\r\n       return accounts[msg.sender].name;\r\n    }\r\n\r\n}",
  "sourcePath": "C:\\projects\\block\\3DGallery\\contract\\contracts\\first_contract.sol",
  "compiler": {
    "name": "solc",
    "version": "0.8.11+commit.d7f03943.Emscripten.clang"
  },
  "schemaVersion": "3.4.4",
  "updatedAt": "2022-04-01T15:33:13.522Z",
  "networkType": "ethereum",
  "devdoc": {
    "kind": "dev",
    "methods": {},
    "version": 1
  },
  "userdoc": {
    "kind": "user",
    "methods": {},
    "version": 1
  }
}