{
  "contractName": "first_contract",
  "abi": [
    {
      "inputs": [
        {
          "internalType": "address",
          "name": "",
          "type": "address"
        }
      ],
      "name": "accounts",
      "outputs": [
        {
          "internalType": "uint256",
          "name": "counter",
          "type": "uint256"
        }
      ],
      "stateMutability": "view",
      "type": "function"
    },
    {
      "inputs": [],
      "name": "owner",
      "outputs": [
        {
          "internalType": "address",
          "name": "",
          "type": "address"
        }
      ],
      "stateMutability": "view",
      "type": "function"
    },
    {
      "inputs": [],
      "name": "get",
      "outputs": [
        {
          "internalType": "string",
          "name": "",
          "type": "string"
        }
      ],
      "stateMutability": "view",
      "type": "function"
    },
    {
      "inputs": [
        {
          "internalType": "string",
          "name": "url_name",
          "type": "string"
        }
      ],
      "name": "addPicture",
      "outputs": [],
      "stateMutability": "nonpayable",
      "type": "function"
    },
    {
      "inputs": [
        {
          "internalType": "uint256",
          "name": "n",
          "type": "uint256"
        }
      ],
      "name": "getpicture",
      "outputs": [
        {
          "internalType": "string",
          "name": "",
          "type": "string"
        }
      ],
      "stateMutability": "view",
      "type": "function"
    },
    {
      "inputs": [
        {
          "internalType": "address",
          "name": "friend_request_address",
          "type": "address"
        }
      ],
      "name": "addFrind",
      "outputs": [],
      "stateMutability": "nonpayable",
      "type": "function"
    },
    {
      "inputs": [],
      "name": "getFriendsAddress",
      "outputs": [
        {
          "internalType": "address[]",
          "name": "",
          "type": "address[]"
        }
      ],
      "stateMutability": "view",
      "type": "function"
    }
  ],
  "bytecode": "0x60806040526040518060400160405280600581526020017f68656c6c6f000000000000000000000000000000000000000000000000000000815250600090805190602001906200005192919062000066565b503480156200005f57600080fd5b506200017b565b828054620000749062000145565b90600052602060002090601f016020900481019282620000985760008555620000e4565b82601f10620000b357805160ff1916838001178555620000e4565b82800160010185558215620000e4579182015b82811115620000e3578251825591602001919060010190620000c6565b5b509050620000f39190620000f7565b5090565b5b8082111562000112576000816000905550600101620000f8565b5090565b7f4e487b7100000000000000000000000000000000000000000000000000000000600052602260045260246000fd5b600060028204905060018216806200015e57607f821691505b6020821081141562000175576200017462000116565b5b50919050565b610c0d806200018b6000396000f3fe608060405234801561001057600080fd5b506004361061007d5760003560e01c80635e5c06e21161005b5780635e5c06e2146100d85780636d4ce63c146101085780638da5cb5b14610126578063e1a58885146101445761007d565b806323db5ee11461008257806353f26b0d146100a057806354bb5ab0146100bc575b600080fd5b61008a610174565b6040516100979190610750565b60405180910390f35b6100ba60048036038101906100b591906107b2565b610242565b005b6100d660048036038101906100d19190610925565b6102e8565b005b6100f260048036038101906100ed91906107b2565b610400565b6040516100ff9190610987565b60405180910390f35b61011061041e565b60405161011d9190610a2a565b60405180910390f35b61012e6104b0565b60405161013b9190610a5b565b60405180910390f35b61015e60048036038101906101599190610aa2565b6104d6565b60405161016b9190610a2a565b60405180910390f35b6060600160003373ffffffffffffffffffffffffffffffffffffffff1673ffffffffffffffffffffffffffffffffffffffff16815260200190815260200160002060060180548060200260200160405190810160405280929190818152602001828054801561023857602002820191906000526020600020905b8160009054906101000a900473ffffffffffffffffffffffffffffffffffffffff1673ffffffffffffffffffffffffffffffffffffffff16815260200190600101908083116101ee575b5050505050905090565b600160003373ffffffffffffffffffffffffffffffffffffffff1673ffffffffffffffffffffffffffffffffffffffff168152602001908152602001600020600601819080600181540180825580915050600190039060005260206000200160009091909190916101000a81548173ffffffffffffffffffffffffffffffffffffffff021916908373ffffffffffffffffffffffffffffffffffffffff16021790555050565b6000600160003373ffffffffffffffffffffffffffffffffffffffff1673ffffffffffffffffffffffffffffffffffffffff168152602001908152602001600020600501549050600581141561033d57600090505b81600160003373ffffffffffffffffffffffffffffffffffffffff1673ffffffffffffffffffffffffffffffffffffffff168152602001908152602001600020600001826005811061039257610391610acf565b5b0190805190602001906103a69291906105bd565b5080806103b290610b2d565b91505080600160003373ffffffffffffffffffffffffffffffffffffffff1673ffffffffffffffffffffffffffffffffffffffff168152602001908152602001600020600501819055505050565b60016020528060005260406000206000915090508060050154905081565b60606000805461042d90610ba5565b80601f016020809104026020016040519081016040528092919081815260200182805461045990610ba5565b80156104a65780601f1061047b576101008083540402835291602001916104a6565b820191906000526020600020905b81548152906001019060200180831161048957829003601f168201915b5050505050905090565b600260009054906101000a900473ffffffffffffffffffffffffffffffffffffffff1681565b6060600160003373ffffffffffffffffffffffffffffffffffffffff1673ffffffffffffffffffffffffffffffffffffffff168152602001908152602001600020600001826005811061052c5761052b610acf565b5b01805461053890610ba5565b80601f016020809104026020016040519081016040528092919081815260200182805461056490610ba5565b80156105b15780601f10610586576101008083540402835291602001916105b1565b820191906000526020600020905b81548152906001019060200180831161059457829003601f168201915b50505050509050919050565b8280546105c990610ba5565b90600052602060002090601f0160209004810192826105eb5760008555610632565b82601f1061060457805160ff1916838001178555610632565b82800160010185558215610632579182015b82811115610631578251825591602001919060010190610616565b5b50905061063f9190610643565b5090565b5b8082111561065c576000816000905550600101610644565b5090565b600081519050919050565b600082825260208201905092915050565b6000819050602082019050919050565b600073ffffffffffffffffffffffffffffffffffffffff82169050919050565b60006106b78261068c565b9050919050565b6106c7816106ac565b82525050565b60006106d983836106be565b60208301905092915050565b6000602082019050919050565b60006106fd82610660565b610707818561066b565b93506107128361067c565b8060005b8381101561074357815161072a88826106cd565b9750610735836106e5565b925050600181019050610716565b5085935050505092915050565b6000602082019050818103600083015261076a81846106f2565b905092915050565b6000604051905090565b600080fd5b600080fd5b61078f816106ac565b811461079a57600080fd5b50565b6000813590506107ac81610786565b92915050565b6000602082840312156107c8576107c761077c565b5b60006107d68482850161079d565b91505092915050565b600080fd5b600080fd5b6000601f19601f8301169050919050565b7f4e487b7100000000000000000000000000000000000000000000000000000000600052604160045260246000fd5b610832826107e9565b810181811067ffffffffffffffff82111715610851576108506107fa565b5b80604052505050565b6000610864610772565b90506108708282610829565b919050565b600067ffffffffffffffff8211156108905761088f6107fa565b5b610899826107e9565b9050602081019050919050565b82818337600083830152505050565b60006108c86108c384610875565b61085a565b9050828152602081018484840111156108e4576108e36107e4565b5b6108ef8482856108a6565b509392505050565b600082601f83011261090c5761090b6107df565b5b813561091c8482602086016108b5565b91505092915050565b60006020828403121561093b5761093a61077c565b5b600082013567ffffffffffffffff81111561095957610958610781565b5b610965848285016108f7565b91505092915050565b6000819050919050565b6109818161096e565b82525050565b600060208201905061099c6000830184610978565b92915050565b600081519050919050565b600082825260208201905092915050565b60005b838110156109dc5780820151818401526020810190506109c1565b838111156109eb576000848401525b50505050565b60006109fc826109a2565b610a0681856109ad565b9350610a168185602086016109be565b610a1f816107e9565b840191505092915050565b60006020820190508181036000830152610a4481846109f1565b905092915050565b610a55816106ac565b82525050565b6000602082019050610a706000830184610a4c565b92915050565b610a7f8161096e565b8114610a8a57600080fd5b50565b600081359050610a9c81610a76565b92915050565b600060208284031215610ab857610ab761077c565b5b6000610ac684828501610a8d565b91505092915050565b7f4e487b7100000000000000000000000000000000000000000000000000000000600052603260045260246000fd5b7f4e487b7100000000000000000000000000000000000000000000000000000000600052601160045260246000fd5b6000610b388261096e565b91507fffffffffffffffffffffffffffffffffffffffffffffffffffffffffffffffff821415610b6b57610b6a610afe565b5b600182019050919050565b7f4e487b7100000000000000000000000000000000000000000000000000000000600052602260045260246000fd5b60006002820490506001821680610bbd57607f821691505b60208210811415610bd157610bd0610b76565b5b5091905056fea26469706673582212204430de42a7a216467ff302443211a3ccd40f500c19dee3f71533665c9ac2ff3c64736f6c634300080b0033",
  "immutableReferences": {},
  "source": "// SPDX-License-Identifier: MIT\r\npragma solidity >=0.4.22 <0.9.0;\r\n\r\ncontract first_contract {\r\n\r\n    string world = \"hello\";\r\n\r\n    function get() public view returns (string memory){\r\n       return world;\r\n    }\r\n\r\n    struct User{\r\n        string[5] urls;\r\n        uint256 counter;\r\n        address[] friends;\r\n    }\r\n\r\n    mapping(address => User) public accounts;\r\n    address public owner;\r\n\r\n    function addPicture(string memory url_name) public{\r\n        uint256 count = accounts[msg.sender].counter;    \r\n        if(count==5){\r\n            count = 0;\r\n        }\r\n        accounts[msg.sender].urls[count] = url_name;\r\n        count++;\r\n        accounts[msg.sender].counter = count;\r\n    }\r\n\r\n    function getpicture(uint256 n) public view returns (string memory){\r\n       return accounts[msg.sender].urls[n];\r\n    }\r\n\r\n//   function getallStrings() public view returns (string[] memory){\r\n//        uint number_of_friends = accounts[msg.sender].friends.length;\r\n//        string[] memory all_friends_picture;\r\n//        for(uint i =0; i< number_of_friends; i++){\r\n//                address friend_address = accounts[msg.sender].friends[i];\r\n//                uint256 number_of_picture_of_friend = accounts[friend_address].counter;\r\n//                \r\n//                for(uint j =0; j<number_of_picture_of_friend; j++){\r\n//                    string memory url = accounts[friend_address].urls[j];\r\n//                    all_friends_picture.push(url);\r\n//                }\r\n//        }\r\n//\r\n//       return all_friends_picture;\r\n//    }\r\n\r\n    function addFrind(address friend_request_address) public {\r\n        accounts[msg.sender].friends.push(friend_request_address);\r\n    }\r\n    function getFriendsAddress() public view returns (address[] memory){\r\n        return accounts[msg.sender].friends;\r\n    }\r\n}",
  "sourcePath": "C:\\projects\\block\\3DGallery\\contract\\contracts\\first_contract.sol",
  "compiler": {
    "name": "solc",
    "version": "0.8.11+commit.d7f03943.Emscripten.clang"
  },
  "schemaVersion": "3.4.4",
  "updatedAt": "2022-03-18T15:22:34.237Z",
  "devdoc": {
    "kind": "dev",
    "methods": {},
    "version": 1
  },
  "userdoc": {
    "kind": "user",
    "methods": {},
    "version": 1
  }
}